{
  "_format": "hh3-artifact-1",
  "contractName": "FoodSupplyChain",
  "sourceName": "contracts/FoodSupplyChain.sol",
  "abi": [
    {
      "inputs": [],
      "stateMutability": "nonpayable",
      "type": "constructor"
    },
    {
      "anonymous": false,
      "inputs": [
        {
          "indexed": false,
          "internalType": "string",
          "name": "batchId",
          "type": "string"
        },
        {
          "indexed": true,
          "internalType": "address",
          "name": "farmer",
          "type": "address"
        },
        {
          "indexed": false,
          "internalType": "uint256",
          "name": "at",
          "type": "uint256"
        }
      ],
      "name": "BatchCreated",
      "type": "event"
    },
    {
      "anonymous": false,
      "inputs": [
        {
          "indexed": false,
          "internalType": "string",
          "name": "batchId",
          "type": "string"
        },
        {
          "indexed": false,
          "internalType": "bool",
          "name": "approved",
          "type": "bool"
        }
      ],
      "name": "BatchRegulatorReviewed",
      "type": "event"
    },
    {
      "anonymous": false,
      "inputs": [
        {
          "indexed": false,
          "internalType": "string",
          "name": "batchId",
          "type": "string"
        },
        {
          "indexed": false,
          "internalType": "uint256",
          "name": "priceWei",
          "type": "uint256"
        }
      ],
      "name": "BatchRetailApproved",
      "type": "event"
    },
    {
      "anonymous": false,
      "inputs": [
        {
          "indexed": false,
          "internalType": "string",
          "name": "batchId",
          "type": "string"
        },
        {
          "indexed": false,
          "internalType": "string",
          "name": "to",
          "type": "string"
        },
        {
          "indexed": false,
          "internalType": "uint256",
          "name": "at",
          "type": "uint256"
        }
      ],
      "name": "BatchShipped",
      "type": "event"
    },
    {
      "inputs": [
        {
          "components": [
            {
              "internalType": "string",
              "name": "product",
              "type": "string"
            },
            {
              "internalType": "string",
              "name": "origin",
              "type": "string"
            },
            {
              "internalType": "uint256",
              "name": "quantity",
              "type": "uint256"
            },
            {
              "internalType": "string",
              "name": "unit",
              "type": "string"
            },
            {
              "internalType": "string",
              "name": "batchId",
              "type": "string"
            }
          ],
          "internalType": "struct FoodSupplyChain.CreateBatchInput",
          "name": "input",
          "type": "tuple"
        }
      ],
      "name": "createBatch",
      "outputs": [],
      "stateMutability": "nonpayable",
      "type": "function"
    },
    {
      "inputs": [
        {
          "internalType": "string",
          "name": "batchId",
          "type": "string"
        }
      ],
      "name": "getBatch",
      "outputs": [
        {
          "components": [
            {
              "internalType": "string",
              "name": "product",
              "type": "string"
            },
            {
              "internalType": "string",
              "name": "origin",
              "type": "string"
            },
            {
              "internalType": "uint256",
              "name": "quantity",
              "type": "uint256"
            },
            {
              "internalType": "string",
              "name": "unit",
              "type": "string"
            },
            {
              "internalType": "string",
              "name": "batchId",
              "type": "string"
            },
            {
              "internalType": "uint256",
              "name": "createdAt",
              "type": "uint256"
            },
            {
              "internalType": "enum FoodSupplyChain.Status",
              "name": "status",
              "type": "uint8"
            },
            {
              "internalType": "address",
              "name": "farmer",
              "type": "address"
            },
            {
              "internalType": "string",
              "name": "destination",
              "type": "string"
            },
            {
              "internalType": "uint256",
              "name": "shipDate",
              "type": "uint256"
            },
            {
              "internalType": "uint256",
              "name": "priceWei",
              "type": "uint256"
            },
            {
              "internalType": "bool",
              "name": "regulatorReviewed",
              "type": "bool"
            },
            {
              "internalType": "bool",
              "name": "regulatorApproved",
              "type": "bool"
            }
          ],
          "internalType": "struct FoodSupplyChain.Batch",
          "name": "",
          "type": "tuple"
        }
      ],
      "stateMutability": "view",
      "type": "function"
    },
    {
      "inputs": [
        {
          "internalType": "address",
          "name": "farmer",
          "type": "address"
        }
      ],
      "name": "listMyBatchIds",
      "outputs": [
        {
          "internalType": "bytes32[]",
          "name": "",
          "type": "bytes32[]"
        }
      ],
      "stateMutability": "view",
      "type": "function"
    },
    {
      "inputs": [
        {
          "internalType": "string",
          "name": "batchId",
          "type": "string"
        },
        {
          "internalType": "bool",
          "name": "approved",
          "type": "bool"
        }
      ],
      "name": "regulatorDecision",
      "outputs": [],
      "stateMutability": "nonpayable",
      "type": "function"
    },
    {
      "inputs": [
        {
          "internalType": "string",
          "name": "batchId",
          "type": "string"
        },
        {
          "internalType": "uint256",
          "name": "priceWei",
          "type": "uint256"
        }
      ],
      "name": "retailerReceive",
      "outputs": [],
      "stateMutability": "nonpayable",
      "type": "function"
    },
    {
      "inputs": [
        {
          "internalType": "string",
          "name": "batchId",
          "type": "string"
        },
        {
          "internalType": "string",
          "name": "destinationRetailer",
          "type": "string"
        },
        {
          "internalType": "uint256",
          "name": "shipDate",
          "type": "uint256"
        }
      ],
      "name": "setDestination",
      "outputs": [],
      "stateMutability": "nonpayable",
      "type": "function"
    }
  ],
  "bytecode": "0x608060405234801561001057600080fd5b506112a7806100206000396000f3fe608060405234801561001057600080fd5b50600436106100625760003560e01c806307cb5001146100675780637b560783146100905780637f329c84146100a5578063b9b443fd146100b8578063f8d7da59146100cb578063f9ca4274146100de575b600080fd5b61007a610075366004610c01565b6100fe565b6040516100879190610c31565b60405180910390f35b6100a361009e366004610cbe565b61016a565b005b6100a36100b3366004610d32565b6102aa565b6100a36100c6366004610d6d565b61058a565b6100a36100d9366004610db9565b61069a565b6100f16100ec366004610e15565b61079c565b6040516100879190610ed5565b6001600160a01b03811660009081526001602090815260409182902080548351818402810184019094528084526060939283018282801561015e57602002820191906000526020600020905b81548152602001906001019080831161014a575b50505050509050919050565b60006101ab86868080601f016020809104026020016040519081016040528093929190818152602001838380828437600092019190915250610b7d92505050565b600081815260208190526040812060058101549293509190036101e95760405162461bcd60e51b81526004016101e090610ff8565b60405180910390fd5b600a810154610100900460ff1661023b5760405162461bcd60e51b81526020600482015260166024820152751c9959dd5b185d1bdc881b9bdd08185c1c1c9bdd995960521b60448201526064016101e0565b60068101805460ff19166002179055600781016102598587836110bc565b50600881018390556040517f58903b503b86d293742dce6b7087f3ee6a71411be1c53a60982dd1044386f1fc9061029990899089908990899089906111a6565b60405180910390a150505050505050565b60006102b960808301836111e0565b9050116102fb5760405162461bcd60e51b815260206004820152601060248201526f18985d18da1259081c995c5d5a5c995960821b60448201526064016101e0565b600061030782806111e0565b9050116103495760405162461bcd60e51b815260206004820152601060248201526f1c1c9bd91d58dd081c995c5d5a5c995960821b60448201526064016101e0565b600061035860608301836111e0565b9050116103975760405162461bcd60e51b815260206004820152600d60248201526c1d5b9a5d081c995c5d5a5c9959609a1b60448201526064016101e0565b60008160400135116103d55760405162461bcd60e51b81526020600482015260076024820152660717479203e20360cc1b60448201526064016101e0565b60006104216103e760808401846111e0565b8080601f016020809104026020016040519081016040528093929190818152602001838380828437600092019190915250610b7d92505050565b600081815260208190526040902060050154909150156104725760405162461bcd60e51b815260206004820152600c60248201526b62617463682065786973747360a01b60448201526064016101e0565b600081815260208190526040902061048a83806111e0565b82916104979190836110bc565b506104a560208401846111e0565b60018301916104b59190836110bc565b50604083013560028201556104cd60608401846111e0565b60038301916104dd9190836110bc565b506104eb60808401846111e0565b60048301916104fb9190836110bc565b504260058201556006810180546001600160a81b0319163361010081029190911790915560008181526001602081815260408320805492830181558352909120018390557f30158d9cc309823571c26af1941cae20ea4cb3c58098610e77db88612e788df161056d60808601866111e0565b4260405161057d93929190611227565b60405180910390a2505050565b60006105cb84848080601f016020809104026020016040519081016040528093929190818152602001838380828437600092019190915250610b7d92505050565b600081815260208190526040812060058101549293509190036106005760405162461bcd60e51b81526004016101e090610ff8565b600083116106415760405162461bcd60e51b815260206004820152600e60248201526d1c1c9a58d9481c995c5d5a5c995960921b60448201526064016101e0565b60068101805460ff19166003179055600981018390556040517f5eb5a945fff3cb8b13bb9c56c11fb5e0014553cd2387947f4c9811776f19f3bf9061068b90879087908790611227565b60405180910390a15050505050565b60006106db84848080601f016020809104026020016040519081016040528093929190818152602001838380828437600092019190915250610b7d92505050565b600081815260208190526040812060058101549293509190036107105760405162461bcd60e51b81526004016101e090610ff8565b600a81018054841580156101000261ffff1990921691909117600117909155839061075457506003600682015460ff16600381111561075157610751610e9d565b14155b156107695760068101805460ff191660011790555b7fe455f043f91b715beac1683ec97cc84cf50bb60d4c5da401885c84fc87945e3785858560405161068b9392919061124b565b6107a4610b88565b60006107e584848080601f016020809104026020016040519081016040528093929190818152602001838380828437600092019190915250610b7d92505050565b9050600080828152602001908152602001600020604051806101a001604052908160008201805461081590611031565b80601f016020809104026020016040519081016040528092919081815260200182805461084190611031565b801561088e5780601f106108635761010080835404028352916020019161088e565b820191906000526020600020905b81548152906001019060200180831161087157829003601f168201915b505050505081526020016001820180546108a790611031565b80601f01602080910402602001604051908101604052809291908181526020018280546108d390611031565b80156109205780601f106108f557610100808354040283529160200191610920565b820191906000526020600020905b81548152906001019060200180831161090357829003601f168201915b505050505081526020016002820154815260200160038201805461094390611031565b80601f016020809104026020016040519081016040528092919081815260200182805461096f90611031565b80156109bc5780601f10610991576101008083540402835291602001916109bc565b820191906000526020600020905b81548152906001019060200180831161099f57829003601f168201915b505050505081526020016004820180546109d590611031565b80601f0160208091040260200160405190810160405280929190818152602001828054610a0190611031565b8015610a4e5780601f10610a2357610100808354040283529160200191610a4e565b820191906000526020600020905b815481529060010190602001808311610a3157829003601f168201915b505050918352505060058201546020820152600682015460409091019060ff166003811115610a7f57610a7f610e9d565b6003811115610a9057610a90610e9d565b8152600682015461010090046001600160a01b03166020820152600782018054604090920191610abf90611031565b80601f0160208091040260200160405190810160405280929190818152602001828054610aeb90611031565b8015610b385780601f10610b0d57610100808354040283529160200191610b38565b820191906000526020600020905b815481529060010190602001808311610b1b57829003601f168201915b50505091835250506008820154602082015260098201546040820152600a9091015460ff80821615156060840152610100909104161515608090910152949350505050565b805160209091012090565b604051806101a0016040528060608152602001606081526020016000815260200160608152602001606081526020016000815260200160006003811115610bd157610bd1610e9d565b815260006020820181905260606040830181905282018190526080820181905260a0820181905260c09091015290565b600060208284031215610c1357600080fd5b81356001600160a01b0381168114610c2a57600080fd5b9392505050565b6020808252825182820181905260009190848201906040850190845b81811015610c6957835183529284019291840191600101610c4d565b50909695505050505050565b60008083601f840112610c8757600080fd5b50813567ffffffffffffffff811115610c9f57600080fd5b602083019150836020828501011115610cb757600080fd5b9250929050565b600080600080600060608688031215610cd657600080fd5b853567ffffffffffffffff80821115610cee57600080fd5b610cfa89838a01610c75565b90975095506020880135915080821115610d1357600080fd5b50610d2088828901610c75565b96999598509660400135949350505050565b600060208284031215610d4457600080fd5b813567ffffffffffffffff811115610d5b57600080fd5b820160a08185031215610c2a57600080fd5b600080600060408486031215610d8257600080fd5b833567ffffffffffffffff811115610d9957600080fd5b610da586828701610c75565b909790965060209590950135949350505050565b600080600060408486031215610dce57600080fd5b833567ffffffffffffffff811115610de557600080fd5b610df186828701610c75565b90945092505060208401358015158114610e0a57600080fd5b809150509250925092565b60008060208385031215610e2857600080fd5b823567ffffffffffffffff811115610e3f57600080fd5b610e4b85828601610c75565b90969095509350505050565b6000815180845260005b81811015610e7d57602081850181015186830182015201610e61565b506000602082860101526020601f19601f83011685010191505092915050565b634e487b7160e01b600052602160045260246000fd5b60048110610ed157634e487b7160e01b600052602160045260246000fd5b9052565b60208152600082516101a0806020850152610ef46101c0850183610e57565b91506020850151601f1980868503016040870152610f128483610e57565b9350604087015160608701526060870151915080868503016080870152610f398483610e57565b935060808701519150808685030160a0870152610f568483610e57565b935060a087015160c087015260c08701519150610f7660e0870183610eb3565b60e08701519150610100610f94818801846001600160a01b03169052565b80880151925050610120818786030181880152610fb18584610e57565b90880151610140888101919091528801516101608089019190915288015190945091506101809050610fe68187018315159052565b90950151151593019290925250919050565b6020808252600990820152681b9bdd08199bdd5b9960ba1b604082015260600190565b634e487b7160e01b600052604160045260246000fd5b600181811c9082168061104557607f821691505b60208210810361106557634e487b7160e01b600052602260045260246000fd5b50919050565b601f8211156110b7576000816000526020600020601f850160051c810160208610156110945750805b601f850160051c820191505b818110156110b3578281556001016110a0565b5050505b505050565b67ffffffffffffffff8311156110d4576110d461101b565b6110e8836110e28354611031565b8361106b565b6000601f84116001811461111c57600085156111045750838201355b600019600387901b1c1916600186901b178355611176565b600083815260209020601f19861690835b8281101561114d578685013582556020948501946001909201910161112d565b508682101561116a5760001960f88860031b161c19848701351681555b505060018560011b0183555b5050505050565b81835281816020850137506000828201602090810191909152601f909101601f19169091010190565b6060815260006111ba60608301878961117d565b82810360208401526111cd81868861117d565b9150508260408301529695505050505050565b6000808335601e198436030181126111f757600080fd5b83018035915067ffffffffffffffff82111561121257600080fd5b602001915036819003821315610cb757600080fd5b60408152600061123b60408301858761117d565b9050826020830152949350505050565b60408152600061125f60408301858761117d565b9050821515602083015294935050505056fea26469706673582212208cc4501fd3129477d0df49e41b1805302baba4dd6744e7abe344eb495f33e2b464736f6c63430008180033",
  "linkReferences": {},
  "deployedLinkReferences": {},
  "immutableReferences": {},
  "inputSourceName": "project/contracts/FoodSupplyChain.sol",
  "buildInfoId": "solc-0_8_24-557b8901cccc9d55485d9a3b3b1561e137de937b"
}